{
  "_format": "hh-sol-artifact-1",
  "contractName": "BountySwarmVault",
  "sourceName": "contracts/BountySwarmVault.sol",
  "abi": [
    {
      "inputs": [
        {
          "internalType": "address",
          "name": "_mneeToken",
          "type": "address"
        },
        {
          "internalType": "address",
          "name": "_agentSwarm",
          "type": "address"
        }
      ],
      "stateMutability": "nonpayable",
      "type": "constructor"
    },
    {
      "inputs": [],
      "name": "InsufficientBalance",
      "type": "error"
    },
    {
      "inputs": [],
      "name": "OnlyAgentSwarm",
      "type": "error"
    },
    {
      "inputs": [
        {
          "internalType": "address",
          "name": "owner",
          "type": "address"
        }
      ],
      "name": "OwnableInvalidOwner",
      "type": "error"
    },
    {
      "inputs": [
        {
          "internalType": "address",
          "name": "account",
          "type": "address"
        }
      ],
      "name": "OwnableUnauthorizedAccount",
      "type": "error"
    },
    {
      "inputs": [],
      "name": "ReentrancyGuardReentrantCall",
      "type": "error"
    },
    {
      "inputs": [],
      "name": "ZeroAddress",
      "type": "error"
    },
    {
      "anonymous": false,
      "inputs": [
        {
          "indexed": true,
          "internalType": "address",
          "name": "previousOwner",
          "type": "address"
        },
        {
          "indexed": true,
          "internalType": "address",
          "name": "newOwner",
          "type": "address"
        }
      ],
      "name": "OwnershipTransferred",
      "type": "event"
    },
    {
      "anonymous": false,
      "inputs": [
        {
          "indexed": true,
          "internalType": "address",
          "name": "organizer",
          "type": "address"
        },
        {
          "indexed": false,
          "internalType": "uint256",
          "name": "amount",
          "type": "uint256"
        }
      ],
      "name": "PrizeDeposited",
      "type": "event"
    },
    {
      "anonymous": false,
      "inputs": [
        {
          "indexed": true,
          "internalType": "address",
          "name": "winner",
          "type": "address"
        },
        {
          "indexed": false,
          "internalType": "uint256",
          "name": "amount",
          "type": "uint256"
        },
        {
          "indexed": false,
          "internalType": "string",
          "name": "submissionHash",
          "type": "string"
        },
        {
          "indexed": false,
          "internalType": "string",
          "name": "scoreHash",
          "type": "string"
        }
      ],
      "name": "PrizeDistributed",
      "type": "event"
    },
    {
      "anonymous": false,
      "inputs": [
        {
          "indexed": true,
          "internalType": "address",
          "name": "oldSwarm",
          "type": "address"
        },
        {
          "indexed": true,
          "internalType": "address",
          "name": "newSwarm",
          "type": "address"
        }
      ],
      "name": "SwarmAddressUpdated",
      "type": "event"
    },
    {
      "inputs": [],
      "name": "agentSwarm",
      "outputs": [
        {
          "internalType": "address",
          "name": "",
          "type": "address"
        }
      ],
      "stateMutability": "view",
      "type": "function"
    },
    {
      "inputs": [
        {
          "internalType": "address",
          "name": "winner",
          "type": "address"
        },
        {
          "internalType": "uint256",
          "name": "amount",
          "type": "uint256"
        },
        {
          "internalType": "string",
          "name": "submissionHash",
          "type": "string"
        },
        {
          "internalType": "string",
          "name": "scoreHash",
          "type": "string"
        }
      ],
      "name": "distributePrize",
      "outputs": [],
      "stateMutability": "nonpayable",
      "type": "function"
    },
    {
      "inputs": [],
      "name": "mneeToken",
      "outputs": [
        {
          "internalType": "contract IERC20",
          "name": "",
          "type": "address"
        }
      ],
      "stateMutability": "view",
      "type": "function"
    },
    {
      "inputs": [],
      "name": "owner",
      "outputs": [
        {
          "internalType": "address",
          "name": "",
          "type": "address"
        }
      ],
      "stateMutability": "view",
      "type": "function"
    },
    {
      "inputs": [],
      "name": "renounceOwnership",
      "outputs": [],
      "stateMutability": "nonpayable",
      "type": "function"
    },
    {
      "inputs": [
        {
          "internalType": "address",
          "name": "_newSwarm",
          "type": "address"
        }
      ],
      "name": "setAgentSwarm",
      "outputs": [],
      "stateMutability": "nonpayable",
      "type": "function"
    },
    {
      "inputs": [
        {
          "internalType": "address",
          "name": "newOwner",
          "type": "address"
        }
      ],
      "name": "transferOwnership",
      "outputs": [],
      "stateMutability": "nonpayable",
      "type": "function"
    }
  ],
  "bytecode": "0x60a06040523480156200001157600080fd5b506040516200107b3803806200107b833981810160405281019062000037919062000311565b33600073ffffffffffffffffffffffffffffffffffffffff168173ffffffffffffffffffffffffffffffffffffffff1603620000ad5760006040517f1e4fbdf7000000000000000000000000000000000000000000000000000000008152600401620000a4919062000369565b60405180910390fd5b620000be81620001e360201b60201c565b5060018081905550600073ffffffffffffffffffffffffffffffffffffffff168273ffffffffffffffffffffffffffffffffffffffff1614806200012e5750600073ffffffffffffffffffffffffffffffffffffffff168173ffffffffffffffffffffffffffffffffffffffff16145b1562000166576040517fd92e233d00000000000000000000000000000000000000000000000000000000815260040160405180910390fd5b8173ffffffffffffffffffffffffffffffffffffffff1660808173ffffffffffffffffffffffffffffffffffffffff168152505080600260006101000a81548173ffffffffffffffffffffffffffffffffffffffff021916908373ffffffffffffffffffffffffffffffffffffffff160217905550505062000386565b60008060009054906101000a900473ffffffffffffffffffffffffffffffffffffffff169050816000806101000a81548173ffffffffffffffffffffffffffffffffffffffff021916908373ffffffffffffffffffffffffffffffffffffffff1602179055508173ffffffffffffffffffffffffffffffffffffffff168173ffffffffffffffffffffffffffffffffffffffff167f8be0079c531659141344cd1fd0a4f28419497f9722a3daafe3b4186f6b6457e060405160405180910390a35050565b600080fd5b600073ffffffffffffffffffffffffffffffffffffffff82169050919050565b6000620002d982620002ac565b9050919050565b620002eb81620002cc565b8114620002f757600080fd5b50565b6000815190506200030b81620002e0565b92915050565b600080604083850312156200032b576200032a620002a7565b5b60006200033b85828601620002fa565b92505060206200034e85828601620002fa565b9150509250929050565b6200036381620002cc565b82525050565b600060208201905062000380600083018462000358565b92915050565b608051610ccb620003b06000396000818161026a0152818161046e01526105440152610ccb6000f3fe608060405234801561001057600080fd5b506004361061007d5760003560e01c80638da5cb5b1161005b5780638da5cb5b146100c6578063ed228441146100e4578063f2fde38b14610102578063fc9742171461011e5761007d565b80630aaf3c8c146100825780635b71474a1461009e578063715018a6146100bc575b600080fd5b61009c60048036038101906100979190610890565b61013a565b005b6100a6610268565b6040516100b3919061091c565b60405180910390f35b6100c461028c565b005b6100ce6102a0565b6040516100db9190610946565b60405180910390f35b6100ec6102c9565b6040516100f99190610946565b60405180910390f35b61011c60048036038101906101179190610890565b6102ef565b005b610138600480360381019061013391906109fc565b610375565b005b610142610686565b600073ffffffffffffffffffffffffffffffffffffffff168173ffffffffffffffffffffffffffffffffffffffff16036101a8576040517fd92e233d00000000000000000000000000000000000000000000000000000000815260040160405180910390fd5b8073ffffffffffffffffffffffffffffffffffffffff16600260009054906101000a900473ffffffffffffffffffffffffffffffffffffffff1673ffffffffffffffffffffffffffffffffffffffff167f4c1cf2d5dd775e9e5ce69682ed5eeda6e9302ffb2f9d0422c064753c5b3a1cf860405160405180910390a380600260006101000a81548173ffffffffffffffffffffffffffffffffffffffff021916908373ffffffffffffffffffffffffffffffffffffffff16021790555050565b7f000000000000000000000000000000000000000000000000000000000000000081565b610294610686565b61029e600061070d565b565b60008060009054906101000a900473ffffffffffffffffffffffffffffffffffffffff16905090565b600260009054906101000a900473ffffffffffffffffffffffffffffffffffffffff1681565b6102f7610686565b600073ffffffffffffffffffffffffffffffffffffffff168173ffffffffffffffffffffffffffffffffffffffff16036103695760006040517f1e4fbdf70000000000000000000000000000000000000000000000000000000081526004016103609190610946565b60405180910390fd5b6103728161070d565b50565b600260009054906101000a900473ffffffffffffffffffffffffffffffffffffffff1673ffffffffffffffffffffffffffffffffffffffff163373ffffffffffffffffffffffffffffffffffffffff16146103fc576040517ffd2cc4a700000000000000000000000000000000000000000000000000000000815260040160405180910390fd5b6104046107d1565b600073ffffffffffffffffffffffffffffffffffffffff168673ffffffffffffffffffffffffffffffffffffffff160361046a576040517fd92e233d00000000000000000000000000000000000000000000000000000000815260040160405180910390fd5b60007f000000000000000000000000000000000000000000000000000000000000000073ffffffffffffffffffffffffffffffffffffffff166370a08231306040518263ffffffff1660e01b81526004016104c59190610946565b602060405180830381865afa1580156104e2573d6000803e3d6000fd5b505050506040513d601f19601f820116820180604052508101906105069190610ab8565b905085811015610542576040517ff4d678b800000000000000000000000000000000000000000000000000000000815260040160405180910390fd5b7f000000000000000000000000000000000000000000000000000000000000000073ffffffffffffffffffffffffffffffffffffffff1663a9059cbb88886040518363ffffffff1660e01b815260040161059d929190610af4565b6020604051808303816000875af11580156105bc573d6000803e3d6000fd5b505050506040513d601f19601f820116820180604052508101906105e09190610b55565b61061f576040517f08c379a000000000000000000000000000000000000000000000000000000000815260040161061690610bdf565b60405180910390fd5b8673ffffffffffffffffffffffffffffffffffffffff167f0848244ced3e067d607f5ba0b957af68b5b13b115c3f9d962fd8822d26fb9f2f878787878760405161066d959493929190610c4c565b60405180910390a25061067e610817565b505050505050565b61068e610820565b73ffffffffffffffffffffffffffffffffffffffff166106ac6102a0565b73ffffffffffffffffffffffffffffffffffffffff161461070b576106cf610820565b6040517f118cdaa70000000000000000000000000000000000000000000000000000000081526004016107029190610946565b60405180910390fd5b565b60008060009054906101000a900473ffffffffffffffffffffffffffffffffffffffff169050816000806101000a81548173ffffffffffffffffffffffffffffffffffffffff021916908373ffffffffffffffffffffffffffffffffffffffff1602179055508173ffffffffffffffffffffffffffffffffffffffff168173ffffffffffffffffffffffffffffffffffffffff167f8be0079c531659141344cd1fd0a4f28419497f9722a3daafe3b4186f6b6457e060405160405180910390a35050565b60026001540361080d576040517f3ee5aeb500000000000000000000000000000000000000000000000000000000815260040160405180910390fd5b6002600181905550565b60018081905550565b600033905090565b600080fd5b600080fd5b600073ffffffffffffffffffffffffffffffffffffffff82169050919050565b600061085d82610832565b9050919050565b61086d81610852565b811461087857600080fd5b50565b60008135905061088a81610864565b92915050565b6000602082840312156108a6576108a5610828565b5b60006108b48482850161087b565b91505092915050565b6000819050919050565b60006108e26108dd6108d884610832565b6108bd565b610832565b9050919050565b60006108f4826108c7565b9050919050565b6000610906826108e9565b9050919050565b610916816108fb565b82525050565b6000602082019050610931600083018461090d565b92915050565b61094081610852565b82525050565b600060208201905061095b6000830184610937565b92915050565b6000819050919050565b61097481610961565b811461097f57600080fd5b50565b6000813590506109918161096b565b92915050565b600080fd5b600080fd5b600080fd5b60008083601f8401126109bc576109bb610997565b5b8235905067ffffffffffffffff8111156109d9576109d861099c565b5b6020830191508360018202830111156109f5576109f46109a1565b5b9250929050565b60008060008060008060808789031215610a1957610a18610828565b5b6000610a2789828a0161087b565b9650506020610a3889828a01610982565b955050604087013567ffffffffffffffff811115610a5957610a5861082d565b5b610a6589828a016109a6565b9450945050606087013567ffffffffffffffff811115610a8857610a8761082d565b5b610a9489828a016109a6565b92509250509295509295509295565b600081519050610ab28161096b565b92915050565b600060208284031215610ace57610acd610828565b5b6000610adc84828501610aa3565b91505092915050565b610aee81610961565b82525050565b6000604082019050610b096000830185610937565b610b166020830184610ae5565b9392505050565b60008115159050919050565b610b3281610b1d565b8114610b3d57600080fd5b50565b600081519050610b4f81610b29565b92915050565b600060208284031215610b6b57610b6a610828565b5b6000610b7984828501610b40565b91505092915050565b600082825260208201905092915050565b7f5472616e73666572206661696c65640000000000000000000000000000000000600082015250565b6000610bc9600f83610b82565b9150610bd482610b93565b602082019050919050565b60006020820190508181036000830152610bf881610bbc565b9050919050565b82818337600083830152505050565b6000601f19601f8301169050919050565b6000610c2b8385610b82565b9350610c38838584610bff565b610c4183610c0e565b840190509392505050565b6000606082019050610c616000830188610ae5565b8181036020830152610c74818688610c1f565b90508181036040830152610c89818486610c1f565b9050969550505050505056fea2646970667358221220f84bc34a7a8622c837e887f0a8f0ad14ffce556dfded001ef3c4bb861242c01f64736f6c63430008140033",
  "linkReferences": {},
  "deployedLinkReferences": {}
}